:020000022000DC
:106000000000012095AB0200BDAB02003D7602000E
:10601000C1AB0200C3AB0200C5AB02000000000030
:10602000000000000000000000000000C7AB0200FC
:10603000C9AB020000000000CBAB0200CDAB0200F8
:10604000658B0200CFAB02005D930200FD9C020055
:10605000B5980200CFAB0200859002005594020073
:10606000BD9C0200CD9C0200DD9C0200CFAB020073
:10607000CFAB0200CFAB0200CFAB0200CFAB020030
:10608000CFAB020089710200CFAB0200CFAB0200A0
:1060900025720200CFAB020049A60200CFAB02007E
:1060A000CFAB0200CFAB0200CFAB0200CFAB020000
:1060B0000D940200CFAB02000000000000000000C1
:1060C000CFAB02001D9402002D940200CFAB020062
:1060D000CFAB0200CFAB0200CFAB0200000000004C
:1060E00000000000000000000000000000000000B0
:1060F00000000000000000000000000000000000A0
:10610000000000000000000000000000000000008F
:10611000000000000000000000000000000000007F
:10612000000000000000000000000000000000006F
:10613000000000000000000000000000000000005F
:10614000000000000000000000000000000000004F
:10615000000000000000000000000000000000003F
:10616000000000000000000000000000000000002F
:10617000000000000000000000000000000000001F
:10618000000000000000000000000000000000000F
:1061900000000000000000000000000000000000FF
:1061A00000000000000000000000000000000000EF
:1061B00000000000000000000000000000000000DF
:1061C00000000000000000000000000000000000CF
:1061D00000000000000000000000000000000000BF
:1061E00000000000000000000000000000000000AF
:1061F000000000000000000000000000000000009F
:1062000010B5054C237833B9044B13B10448AFF3F0
:1062100000800123237010BD7CA20020000000003C
:10622000602D030008B5034B1BB103490348AFF3CE
:10623000008008BD0000000080A20020602D030047
:10624000154B002B08BF134B9D46A3F5803A002148
:106250008B460F461348144A121A04F0B9FD0F4B2F
:10626000002B00D098470E4B002B00D09847002001
:10627000002104000D000D48002802D00C4806F053
:1062800021FE04F0B5FC2000290000F029F804F0FC
:106290009FFC00BF0000080000000120000000007B
:1062A000000000007CA2002004B10020C5CE020046
:1062B00095E002007047000007B50DF1060103F0FC
:1062C00061FA18B1044A322100F0D3FBBDF906008F
:1062D00003B05DF804FB00BF1F14030000000000C2
:1062E0002DE9F04F2DED088B4FF4004191B00020C7
:1062F00001F042FF18B1E24A3B2100F0BAFB01F085
:1063000069FEE04BE04918680790022307A88DF862
:106310001C3003F051F918B1D94A422100F0A9FB11
:1063200000200223CDE9080008A98DF824300623B7
:106330008DF828008DF8273003F0A0F918B1D04A65
:106340004D2100F096FB072308A901208DF8273086
:1063500003F094F918B1CA4A522100F08AFB0823CD
:1063600008A902208DF8273003F088F918B1C44A33
:10637000572100F07EFBC54804F074FD04224FF065
:10638000FF33CDE90B2344F6206101230022CDE940
:106390000E31BF488DF835200BA98DF8343000F050
:1063A000C7FC18B1B64A692100F063FBDFEDB98A7A
:1063B000B74800F05FFE68EEA89AB0EE689A69EE02
:1063C000A97AA5A5D5E9004517EE900A0AF0EEFADC
:1063D00041EC100B09F0C0FD18EE900AB0EE40BA87
:1063E000F0EE60BA0AF0E2FAB0EE4B1AF0EE6B1A79
:1063F00041EC100B09F0AEFD69EEA97A98A7D7E938
:10640000006717EE900A0AF0D1FA41EC100B09F080
:10641000A3FD18EE900AB0EE40AAF0EE60AA0AF0D2
:10642000C5FAB0EE4A1AF0EE6A1A41EC100B09F008
:1064300091FD51EC100B0AF0E9FD69EEA97A08EE26
:10644000900A17EE900A0AF0B1FA41EC100B09F02D
:1064500083FD19EE100AB0EE40AAF0EE60AA0AF031
:10646000A5FAB0EE4A0AF0EE6A0A41EC110B09F007
:1064700071FD0FF2F419D9E900890020FFF71CFF24
:1064800004900120FFF718FF83460220FFF714FF56
:10649000049B824618460AF077FA22462B460AF0F9
:1064A000DDFA0AF0B3FD0AF081FA32463B460AF003
:1064B0001DF942464B460AF0FBFB0AF0A7FD08EE29
:1064C000100A58460AF060FA22462B460AF0C6FA2D
:1064D0000AF09CFD0AF06AFA32463B460AF006F9D9
:1064E00042464B460AF0E4FB0AF090FD09EE100A22
:1064F00050460AF049FA22462B460AF0AFFA0AF053
:1065000085FD0AF053FA32463B460AF0EFF8424660
:106510004B460AF0CDFB0AF079FD09EE900A29EE10
:1065200009AA69EEA9AA6AEE2A7A17EE900A0AF079
:106530003DFA41EC100B09F00FFD18EE100AB0EE19
:1065400040BAF0EE60BA0AF031FAB0EE4B1AF0EE53
:106550006B1A41EC100B09F0FDFC28EE088A5BEC8D
:1065600010AB6AEE887A17EE900A0AF01FFA41EC37
:10657000100B09F0F1FC19EE100AB0EE40BAF0EE83
:1065800060BA0AF013FAB0EE4B1AF0EE6B1A41EC57
:10659000100B09F0DFFC51EC100B0AF037FD6AEE2E
:1065A000087A09EE100A17EE900A0AF0FFF941EC9A
:1065B000100B09F0D1FC19EE900AB0EE40AAF0EEF3
:1065C00060AA0AF0F3F9B0EE4A0AF0EE6A0A41EC6A
:1065D000110B09F0BFFC594650468DED040B0AF033
:1065E00015FD0AF0E3F99DED040B82468B4651EC54
:1065F000100B0AF00BFD0AF0D9F9CDE9020119EEF2
:10660000100A0AF0D3F979EE688A52465B46CDE962
:106610000001214804F026FC18EE900A0AF0C6F9A1
:1066200013A3D3E9002382468B460AF0A7FC002877
:1066300049D111A3D3E90023504659460AF080FC02
:10664000002814BF05220022DFF844B01FFA82FAA6
:1066500024E000BFAFF30080CDCCCCCCCCCC4C3F01
:10666000CDCCCCCCCCCCF63FF0A7C64B3789D93FAC
:10667000666666666666D63F666666666666D6BFA8
:106680001F140300C4130300B5620200E0130300EB
:10669000C813030000000000F61303005246002157
:1066A000584600F03BFB1128F8D0084B4FF0320A57
:1066B00043F0010BF0EE498A4FF47A40D847BAF123
:1066C000010AF9D1D9E60A22BEE700BFD0130300C0
:1066D00038B5054D044645F001054FF47A40A8470A
:1066E000013CFAD138BD00BFE01403007FB5054678
:1066F0000E46144672B601F075FF01F097FD0028B2
:10670000FBD13E4804F0AEFB41F201039D4264D050
:1067100006D8012D12D03146394804F0A3FB10E011
:1067200044F201039D425AD044F202039D42F2D149
:1067300022886168334804F095FB02E0324804F097
:1067400091FB02F0B1FA08B902F078FA0023ADF833
:106750000C308DF80E3003A9012319208DF80D306F
:1067600002F0ACFA03A9182002F0A8FA03A9172036
:1067700002F0A4FA192002F0A5FB182002F0A2FBF7
:10678000172002F09FFB4FF4FA70FFF7A1FF1920CA
:1067900002F06AFB182002F067FB172002F064FB8E
:1067A0003220FFF795FF192002F08CFB182002F031
:1067B00089FB172002F086FB4FF4FA70FFF788FF81
:1067C000192002F051FB182002F04EFB172002F0B6
:1067D0004BFBFA20FFF77CFFCCE70C48AFE7A5683E
:1067E000284602F069F9236801960093024663681F
:1067F0000748294604F036FBA3E700BF2614030030
:10680000C31403007E1403003F1403005C14030050
:106810009914030007B502F047FA08B902F00EFA1E
:106820000023ADF804308DF8063001A901231920AA
:106830008DF8053002F042FA01A9182002F03EFA64
:1068400001A9172002F03AFA192002F03BFB1820A8
:1068500002F038FB172002F035FB4FF4FA70FFF717
:1068600037FF192002F000FB182002F0FDFA172074
:1068700002F0FAFA3220FFF72BFF192002F022FB78
:10688000182002F01FFB172002F01CFB4FF4FA70D7
:10689000FFF71EFF192002F0E7FA182002F0E4FAD1
:1068A000172002F0E1FAFA20FFF712FFCCE70369A4
:1068B000C1688B429DBF8268D21802F1FF3203F19A
:1068C000FF3394BF501A581A70472DE9F041D0E9B0
:1068D00002670446F61B40689642884615463844CF
:1068E00005D904F0DBF93D44E560BDE8F0813246AE
:1068F000AD1B04F0D3F92A4608EB0601606804F0EA
:10690000CDF9F1E72DE9F843C568064689461746F3
:106910004FF000083469B3687068A54228BFE418D6
:10692000013C621B5C1BBC4228BF3C46944228BF12
:10693000144649462844224604F0B0F9B368254479
:10694000AB4208BF00253F1BA044A144F560E1D144
:106950004046BDE8F883000010B5114C114AA26111
:106960000223C4E90433104BE361A2644FF40073C3
:106970000E4A2362E264002310220D49A362E01D47
:106980006362E362A3656365E365226504F046FB29
:106990000849204604F042FB2023A37110BD00BF2C
:1069A00048B00020E6140300A8A2002098A200200E
:1069B000EF140300F3140300F8B5184C182300FB80
:1069C000033503FB00402544C46A012C0F461646DC
:1069D00011D003D3022C1BD000240AE02846FFF775
:1069E00066FF864205D8324639462846FFF76DFFD6
:1069F00034462046F8BD2846FFF759FF8642344604
:106A000028BF0446224639462846FFF75EFFF0E7D6
:106A10002846BDE8F840FFF775BF00BF48B000202A
:106A200073B50D4B1B7804460D4616460BB9FFF7A0
:106A300093FF02A8002300F8013D00F0A7FD3246B5
:106A400029462046FFF7B8FF04469DF8070000F0EE
:106A5000CDFD204602B070BD48B00020FFF77CBFDE
:106A600010B511461C461A460020FFF7D9FF2046F4
:106A700010BD00B583B002900091019244F2010074
:106A800071466A46FFF732FE03B000BD2DE9F843B8
:106A90000468054694F8200002F0EEFB04F11807A4
:106AA000FF264FF0FF394FF00008207AFF2802D070
:106AB00002F0E2FB2672607AFF2802D002F0DCFBD3
:106AC00066722068431C03D002F086F9C4F8009077
:106AD00084F80B800C34BC42E7D16868BDE8F84309
:106AE00003F02EB82DE9F041134DDFF850800E462B
:106AF0000024012705EB41052B5D5BB12B5D013BBC
:106B0000DBB22B552B5D93B958F826301B68304605
:106B1000DB6998474CB167B1084B53F82630022126
:106B20005868BDE8F04103F0A7B80124E4E7002766
:106B3000F0E7BDE8F08100BFC0B00020A8A40020AD
:106B400040680C4902798B5CDBB2FF2B0DD0FE2B29
:106B50000DD0006803F5A87350F82330064850F8AC
:106B60002200984203D1FF238B540020704701205C
:106B7000704700BFBCA40020C4A400202DE9F84F3A
:106B8000012904460D469046066804D95E4940F244
:106B90005B2003F087FE0C2303FB0563DB7A012BEC
:106BA00004D059494FF4177003F07CFE96F8213059
:106BB000022B40F0A4800C276F43F3195B689845C3
:106BC00008D1F36913B90020BDE8F88F6268107925
:106BD0009847F8E72046FFF7B3FF8346002840F0C8
:106BE00090806368DFF830A11B79FE220AF8032049
:106BF000266896F8200002F099FBD146B8F1000F04
:106C00001FD13744787A02F091FB387A02F076FB94
:106C100063681B79FF220AF803200C2303FB056637
:106C2000C6F804802368DB69002BCCD063681A792E
:106C3000364B03EB420302215955606802F0F0FF26
:106C4000C1E7B169884507D337441FFA81F8387A1C
:106C500002F06CFB787AD9E705EB4507BF00F31922
:106C600060685A68914245D0002A43D0904541D28D
:106C70005B46032102F0A2FFD4F804A096F820B0EE
:106C80009AF80530032B04D8214940F2751003F01F
:106C900009FEDAF80030F05903F5A67A0C2303FB5D
:106CA00005639B7A1BB302F091F9024651465846A0
:106CB00002F004FB96F8200002F020FB63681B79C9
:106CC00009F8035063681A79124B43F822800C27A5
:106CD00007FB0567002342462946606802F06EFF05
:106CE000387A02F00BFB787A02F008FB95E702F0A5
:106CF00049F9DAE70379FF2209F80320E7E70820DA
:106D000062E7112060E700BFFA140300C0B0002062
:106D100044150300C4A40020BCA4002003681B8BFE
:106D20005A436423B2FBF3F292B2FFF727BF00008D
:106D30002DE9F04F89B08A460592044620B9C3492F
:106D400040F2113003F0AEFDBAF1000F00F079818E
:106D5000266896F82130002B40F0758100F088FEFF
:106D600008B1852821D101F09FFF00B3B84B1B6803
:106D700003F0F003302B20D10023B64A002113701A
:106D8000FF234FF0FF3286F82030F17233727372B6
:106D90003260F17532757375F26006F1200002F011
:106DA00037FA60B12046FFF771FE042518E001F0C4
:106DB00045FF0028DAD0032512E00123DDE7054670
:106DC0005AF825B0EBB2BBF1FF3F049300F0AE8060
:106DD000276897F8211049B108252046FFF756FE8D
:106DE000284609B0BDE8F08F0125E9E70AEB050266
:106DF0004FF00C0808FB05F8137A029307EB080222
:106E00004FF001095160937203228DF81820226817
:106E1000424406A9927A8DF81A90B2FA82F2520987
:106E200058468DF8192001F049FFE8B9029B47F850
:106E300008B0002B00F0EB80BBF11F0F04D986498E
:106E40004FF4F37003F02EFD4FF0A04209FA0BF35C
:106E5000C2F80C354FF00C0909FB05F909F10800DF
:106E6000384402F0D5F908B10425B6E709F1090064
:106E7000384402F0CDF90028F6D1B94499F8080059
:106E800002F054FA99F8090002F050FA029B57F800
:106E90000800002B00F0CA8002F098F8814657F8ED
:106EA000080002F06FF80C2303FB0573049993F8B4
:106EB00008B063685A798A42804606D867490293C7
:106EC00040F2751003F0EEFC029B1B6805F15001C7
:106ED0004A4603EB8101584602F0F0F90C2303FB0C
:106EE0000573D4F804B093F809909BF80530022B91
:106EF00004D85A4940F2751003F0D4FCDBF80010B6
:106F0000424601F5A471484602F0D8F90C2303FB70
:106F100005770123FB726368514A1B79049902EBE0
:106F20004303204600225A55FFF728FE002D3FF468
:106F30005BAFDAF810200023B2F5805F01D3092B94
:106F40007CD1444A127812B1002B08BF01238DF87E
:106F5000183000238DF819308DF81A306068414AD6
:106F600007238DF81B300379079306A902F0FAFC7A
:106F7000054600287FF431AF6368DAF810001B681B
:106F8000D3F81015C9B2050FC1F1200C0001A1F111
:106F9000200720FA01F805FA0CFC48EA0C0825FA4B
:106FA00007F725FA01F948EA0708B9F1010F08BF08
:106FB000B8F1000F08D32C4940F2B120CDE9028985
:106FC00003F070FCDDE90289C6F818806068CDE93D
:106FD000028902F0DDFDDDE9028901250095042327
:106FE00042460221606802F004FE0221606802F05D
:106FF00043FE059BF36163681C4A1B7986F82150A8
:1070000042F823401A4AFF21D1540025E8E6BBF19B
:107010001F0F04D910494FF4F37003F043FC4FF0F5
:10702000A04209FA0BF3C2F8083513E701F0AAFFF2
:10703000814657F8080001F0C9FF34E752080133D0
:107040007AE70B25CCE60825CAE600BFFA14030050
:10705000E80F00F0D8A400209515030044150300A4
:10706000C0B00020E56A0200D8150300A8A40020E3
:10707000BCA400202DE9F047076897F821300446AA
:1070800023B91B4940F2973003F00CFC0026DFF8CF
:1070900068903D46B0464FF00C0A63681B7909EBD7
:1070A000430303F80680EB7A73B1236828680AFB70
:1070B0000633997AB1FA81F1490901F0ABFF2868EA
:1070C00001F02EFFC5F804800C357EB16368094AD3
:1070D0001B79FF21D154606802F05AFD606802F00C
:1070E000F9FC022387F82130BDE8F0870126D4E7B8
:1070F000FA140300BCA40020C0B00020094A537851
:1071000091780133DBB2994208BF0023117899428C
:107110001FBF03705078182303FB002014BF0430F6
:1071200000207047DCA4002073B5054602A80024A7
:1071300000F8014D0E4600F029FA0DF10600FFF7A8
:10714000DDFF90B106700A4B9DF8062045605A702D
:107150009DF8070000F04AFA24B9064B4FF480125C
:10716000C3F80021204602B070BD0424F0E700BF40
:10717000DCA4002000E100E0024B4FF43C6043F04F
:107180000103184720160300F8B51F491F4B0025BF
:10719000C1F84051C1F84451C1F84851C1F84C51AF
:1071A000C1F80051C1F804511B684BB3D1F8044534
:1071B00017490968641A24F07F442F461A68A242CE
:1071C00009D8A41A15441A7CDE691AB11F74D3E9D0
:1071D00005209047AEB90F4B0F4A197813788B42B0
:1071E00005D10133DBB2022B08BF002313701278E4
:1071F0000A4B43F822500A4B4FF48012C3F8002187
:10720000F8BD3346DAE700BF00100140FCA50020BE
:10721000F8A50020F4A50020F5A50020ECA500208D
:1072200000E100E02DE9F74F9C4A9D491378097869
:107230009C4D99423CD00133DBB2022B08BF0023A6
:10724000137099491278994B0F6853F822003B1834
:1072500023F07F4300220B602B68164614469446A9
:1072600013B942B12B6006E0196881420ED902B110
:107270002B60091A19604FF001082B68DFF834A25F
:1072800000930027BEB9DFF834B260E0401A0C4426
:10729000D968C3F800C0D3F81CE031B13A1922F024
:1072A0007F42C3E90121DE611E4601227346D7E712
:1072B0000026B046E1E73446F6697B4A6368126807
:1072C000DFF8FCC1A068991A21F07F41614500F206
:1072D000A58001442160012222742A680023C4E9A8
:1072E0000133E361002A40F0A2802C60CAE75A1CF7
:1072F0009BF80210D2B291428BF8002004BF00220A
:107300008BF80020182202FB03B32A6819799C68C5
:10731000022974D003297ED0012918D1217CB1B96A
:10732000DA6862601A69A2605A69E2609B69A361C7
:107330005F4B1B78002BC0D06160BEE79C4200F021
:1073400090809946DB69002BF8D1002323749BF8C9
:1073500000309BF801209A42C9D12B682FB9009ABE
:10736000934202D1B8F1000F43D0002B41D0D3F8A3
:1073700000A0504D4C4BD5F804751C68DFF84481D3
:107380003E1B98F8003026F07F4603369BB94FF439
:107390008033C5F84433C5F80433474B4FF400320B
:1073A0004FF00109C3F880211A60C5F80090FFF77B
:1073B000E3FE88F80090B2452CBF5444A41924F091
:1073C0007F44C5F84045D5F80435DB1B23F07F43E7
:1073D000E41B033324F07F44A3420AD9D5F80435D3
:1073E000C5F84035FFF7C8FE334B4FF40032C3F801
:1073F00000212F4B00221A7003B0BDE8F08F134616
:107400009146A0E71174D2690123002AFAD1002B1A
:107410009DD02A609BE700231946F6E7D31A23F094
:107420007F43834234BFC31A0023236053E721689C
:107430001368994213D8591A1160E26155E7091A85
:10744000D8691A4638B1034618688842F7D3401AFB
:107450001860184613462160E061DC6112E71346AC
:10746000F2E74C450DD1D3692B6053B90E48019218
:107470000121CAF8081003600D4B1970FFF77CFE5C
:10748000019AE1692368C9F81C1011B10868034426
:107490000B602B689A4218BF012756E7F4A500201D
:1074A000F5A50020FCA50020F8A50020ECA50020F3
:1074B000E8A500200010014000E100E0DCA400206D
:1074C000FEFF7F00E9A500202DE9F7431D4FBB78A3
:1074D00005460E4690469BB390B304292ED94369C6
:1074E00073B3437C02A80024012B00F8014D0CBFAC
:1074F0008946A14600F04AF80DF10600FFF7FEFDAF
:10750000D0B101230370104B4560D3F80435C0E9B6
:107510000498C0E902369DF806307B709DF807009C
:1075200000F064F824B9094B4FF48012C3F800212D
:10753000204603B0BDE8F0830424EFE70724F7E713
:107540000824F5E7DCA400200010014000E100E081
:10755000064A92783AB130B1426922B100220274EF
:107560000221FFF7E1BD0820704700BFDCA4002026
:10757000EFF30583C3F308032BB9EFF31480C04383
:1075800000F00100704701207047000070B504460C
:10759000FFF7EEFF012803D01049432003F082F9E2
:1075A000EFF3108672B60E4A9068012398B9936083
:1075B0000C4B0D4DD3F8801029401160C3F880505A
:1075C000D3F8841051604FF0FF32C3F8842020704C
:1075D00006B962B670BD2370FAE700BF2616030035
:1075E000CCB0002000E100E0FC06FFBD10B5044671
:1075F000FFF7BEFF012803D00949512003F052F9DB
:10760000084B9A685AB154B9EFF3108172B6064A22
:1076100018681060586850609C6001B962B610BD6F
:1076200026160300CCB0002000E100E0024B1B68EE
:107630000021986803F02ABCBC9800201EF0040FBB
:107640001CBFEFF309800AE0EFF308800549064A02
:10765000884201D8904202D88D464FF00000034B7B
:10766000184700000000012000E0002071760200B1
:107670002DE9F347054600F0B5FF00F0D7FD0028DF
:10768000FBD12F4B2F4C9F6A2F4BE41AE4082404A4
:1076900044F00104002D4ED0AA692C49204600F088
:1076A00049FFEB680193AB6800932949D5E90023B2
:1076B000204600F05FFFEB6900932649D5E90423DB
:1076C000204600F04BFF1E4BDB6A980703D522498A
:1076D000204600F02BFFDFF89490DFF894A00026FE
:1076E0004FF0010808FA06F33B4206D059F826206D
:1076F0001AB15146204600F01DFF01361A2EF1D175
:10770000390605D50E4B15495A6B204600F012FF7D
:107710003A0405D50A4B12499A6B204600F00AFF3D
:10772000104B1B68DB0700D500BE2846FFF772F838
:1077300002B0BDE8F0870C49204600F0F7FEC2E732
:1077400000ED00E0DC2D0300742D03007B16030028
:1077500090160300C5160300201703006F170300DF
:107760008F170300F0ED00E0ED160300AC170300E7
:107770006417030050E8002F0B4640E8003C9CF0E3
:10778000000FF7D11046704750E8003F43EA01026E
:1077900040E8002C9CF0000FF6D11046704750E8EE
:1077A000002F02EA010340E8003C9CF0000FF6D1F4
:1077B0001046704750E8003F03EB010240E8002C00
:1077C0009CF0000FF6D11046704750E8003FA3EB45
:1077D000010240E8002C9CF0000FF6D110467047E3
:1077E0000121FFF7D1BF0021FFF7D9BF10B5044633
:1077F000002834D003681BB91A49FF2003F052F85F
:10780000636823B917494FF4807003F04BF8A368FD
:1078100023B9144940F2011003F044F8E36823B996
:1078200010494FF4817003F03DF8238A23B90D49C4
:1078300040F2031003F036F8D4E9012321689B1AC3
:10784000DBB20A60013BDBB2FF2B226802D10020D1
:10785000107110BD1168481C10600B70F2E70E200B
:10786000F7E700BFD41C030037B5054620B914491B
:107870004FF4927003F016F802A8002400F8014DAE
:10788000FFF784FE2A68696813688B4210D9591E75
:10789000116013F8014C2A8AEB6802FB04342A6851
:1078A000AB6811685B1A1179DBB2994238BF13716A
:1078B0009DF80700FFF79AFE204603B030BD00BFD9
:1078C000D41C030037B50C46054620B9104940F2D8
:1078D000471002F0E7FF24B90D494FF4A47002F0FD
:1078E000E1FF02A8002300F8013DFFF74FFE2A68E0
:1078F0001368591C1160EA68A41A2A8AB4FBF2F4CE
:107900001C709DF80700FFF771FE03B030BD00BF8B
:10791000D41C030038B5084C04F1080305460028C0
:1079200018BF1C4623682BB11A6822605B68284682
:107930009847F7E738BD00BF08A6002020B9054BDF
:1079400001225A70FFF7E6BF012802D1014A907068
:10795000F8E7704700A6002020B9034B01225A70B7
:10796000FFF7D8BF704700BF00A6002038B50B4C0A
:10797000237883B90A486360A3602361E36001F060
:10798000A5F8054602F046FE08B901F0B5F8012356
:107990002370284638BD8525FBE700BF00A60020E0
:1079A0003D79020013B5154C237823B914494FF4DF
:1079B000857002F077FFE36823B9114940F20B109C
:1079C00002F070FF02A8002300F8013DFFF7DEFD82
:1079D000E368013BE360E36853B902F01BFE18B1B2
:1079E0000749792002F05EFF01F0A4F80023A3709C
:1079F0009DF80700FFF7FAFD02B010BD00A60020B9
:107A0000241D0300012813B509D003D303281BD07C
:107A100002B010BD134B0122C3F88020F8E702A882
:107A20000023114C00F8013DFFF7B0FD23780BB99E
:107A3000FFF79CFFE3689DF807000133E360012333
:107A4000A370FFF7D3FDE3E7074B1B7823B9074982
:107A500040F2452002F026FF01F04EF8FFF7A2FFAA
:107A6000D6E700BF00E100E000A60020241D0300CF
:107A7000034B187810B901221A707047852070479F
:107A800014A6002010B5044618B90649312002F0AA
:107A900009FFA2682AB16369216820699847002319
:107AA000A36010BD791D03000EB433B5059D0446D7
:107AB00018B91249422002F0F5FE63691BB90F495B
:107AC000432002F0EFFE23681BB90C49442002F06A
:107AD000E9FE63681BB90949452002F0E3FE3DB1A8
:107AE00002AA06AB42F8043D2946204600F06EF893
:107AF00002B0BDE8304003B0704700BF791D0300FD
:107B0000826830B40468551C8560A154D0E9013204
:107B10009A4202D330BCFFF7B5BF30BC70470000BB
:107B20002DE9F84F9946DDE90A4317468246884613
:107B30000A460126BA420FD24E4538BF4E4613F0D0
:107B4000010B01D164B900240125B9F1010F1AD943
:107B500009F1FF397D43F8E7B2FBF7F20136E9E7B7
:107B60009B070ED5B9F1000F0CBF30252025A6428A
:107B7000EAD2013C29465046FFF7C2FF002CF6D15D
:107B8000E1E72025F3E7B8FBF5F39F42E2D9DFF800
:107B90003890B8FBF5F3504619F8031005FB13882D
:107BA000FFF7AEFFB5FBF7F5002DF2D1BBF1000FEB
:107BB00002D00CB1A64201D3BDE8F88F2021504677
:107BC000013CFFF79DFFF4E7BF1D03002DE9F74FD0
:107BD0000E469046054620B9AC494FF4A27002F01B
:107BE00061FE6B6923B9A9494FF4A37002F05AFEF4
:107BF0002B6823B9A54940F2471002F053FE6B6889
:107C000023B9A2494FF4A47002F04CFE002E00F0FC
:107C10003A8116F8011B002958D0252940F0D1805F
:107C2000002702E047F001071646324612F8013BF2
:107C30002D2BF7D0302B04D02B2B05D147F0040788
:107C4000F2E747F00207EFE700242A2B06F10102D2
:107C50001BD1D8F80030191DC8F800101B68164653
:107C60001C4433782E2B1CD101364FF0000A3146CC
:107C700011F8012BA2F13000092814D80A2303FBC4
:107C80000A23A3F1300A0E46F1E712F8013CA3F1F2
:107C900030010929E5D80A2101FB0434303C16469D
:107CA000D3E74FF0000A324612F8011B01F0FB0047
:107CB00068281646F8D0692916D054D8582970D0AB
:107CC0000ED825297DD03378002BA2D12B7B002B19
:107CD00000F0D980284603B0BDE8F04FFFF7D2BED0
:107CE000632968D06429EED1D8F80020111DC8F8A6
:107CF0000010D2F8009089EAE972A2EBE9724FF025
:107D0000010B092A61DCD34538BFD3462CB1B9F148
:107D1000000F01DB790700D5013CBA0702D5BAF1A3
:107D2000000F04D0FB0702D4002C54D10024B9F179
:107D3000000F58DAC9F100092D212846FFF7E0FEAF
:107D400007F00302022A05D1BAF1000F02D1002C7C
:107D50004DD10024CDE9004753460A224946284622
:107D6000FFF7DEFEAFE7732954D016D87029AAD1E9
:107D7000D8F800301A1DC8F80020302128461C68A9
:107D8000FFF7BEFE78212846FFF7BAFE002208233F
:107D9000CDE9003221461022E1E775292FD078295C
:107DA00091D1D8F800100A1DC8F80020CDE900478D
:107DB000534610222CE0D8F800301A1DC8F80020D5
:107DC00019782846FFF79CFE7DE70A230BF1010B8B
:107DD00092FBF3F295E7A345A9D220212846013C66
:107DE000FFF78EFEA0E77807AAD52B21A5E7A345CC
:107DF000B0D230212846013CFFF782FEA7E7D8F831
:107E00000010CDE900470A1DC8F8002053460A2299
:107E10000968A4E7D8F800301A1DC8F80020F9074F
:107E2000D3F8009012D54F46A7EB090B17F8011BAA
:107E300041B9A345BFF447AF20212846013CFFF7D5
:107E40005FFEF6E72846FFF75BFEEDE7B9F1000FAE
:107E500017D0484603F054F90746BC4200D954B93C
:107E600009F1FF3919F8011F00293FF42CAF28460A
:107E7000FFF746FEF6E720212846013CFFF740FECB
:107E8000EBE74F46E9E703B0BDE8F08FCF1D0300F5
:107E90007047000007B5044B0093044A402300F0EC
:107EA00032F803B05DF804FBB17E020016A6002094
:107EB0002DE9F84389461446B2B10F4B0F4E032506
:107EC000002743F00108224609EB07010020FEF7D6
:107ED00073FD0744241A48B933782BB14FF47A4024
:107EE000C047013D02D13570BDE8F88301233370EE
:107EF000002CE8D1F8E700BF301E030015A60020D3
:107F00007047FEF7ABBDF0B595B01C461646084667
:107F10000D4600F032FD1A9B0D93CDE90864002454
:107F20002346082205A928460A948DF82C400C9473
:107F300000F04CFD079B0293BDF81830ADF80C30F3
:107F4000BDF81A30ADF80E309DF814308DF81140A0
:107F500003F00302012A1DD1BDF81440059EC3F3AE
:107F6000C203C4F383148DF81030A20008230EA9B5
:107F7000284600F02BFDC6F3952608AB0093224659
:107F800002AB0EA9304600F09DFB284600F0F9FC3C
:107F900015B0F0BD022AF8D1BDF81640C3F3C203F4
:107FA000A4098DF810300827082C264628BF08267B
:107FB0003B4632460EA9284600F008FDA41B08AB3C
:107FC00002AA31460EA8374400F0E0FB002CEBD1AA
:107FD000DBE7000008B5FFF794FF0421064800F036
:107FE000D7FA002803DA0549412002F05BFC044B74
:107FF00001225A7108BD00BF582E0300441E030021
:10800000A8980020037813F0040216D003F00303AD
:10801000012B03D0022B09D0012070470A68008889
:108020000232C0F3831002440A60F5E70B6842880D
:10803000023303EB92130B60EEE71046704700002B
:108040002DE9F04F89B00646871C08A8484C0092DD
:1080500000230D4600F8113DFFF798FA23682B60C6
:10806000D4E901231344226801339B1A04F21C480B
:1080700004F5836B04F21449BB421AD3009A00231F
:10808000002A6DD0012262F3010343F0040366F37A
:1080900089132168A2689DF80F000A4003320F443B
:1080A00044F822302760FFF7A1FA012009B0BDE8AB
:1080B000F08F01214046FFF77DFB5846FFF790FB0C
:1080C0000DF1200A4846FFF78BFB60684AF8100D57
:1080D000A5682840033004EB80005146FFF792FF6B
:1080E00002460498002AF4D105EA000304EB830356
:1080F000811CDB6805930130054004EB850503F026
:108100000303012B0491ED6823D0022B08D01949F9
:1081100001924FF4BF7002F0C5FB019A154607E0CB
:10812000BDF816309B0903332D0C01EB9303049328
:108130004846FFF758FB08B1049B63602946404658
:10814000FFF738FBD4E901231344226801339B1A5B
:1081500092E7BDF81430C3F383132D0C0B44E6E70C
:10816000022262F3010343F0040366F39F5390E796
:1081700028A70020B31E03000B4B0C48FF2210B5AC
:108180009A600022C3F81824C3E90022C3F814241B
:10819000012283F8202400F0A9FB044610B904480A
:1081A00000F02AFC204610BD28A700200C2E03005A
:1081B0000C1F030030B50A4C71B10A4A0A49121B60
:1081C000D20800239A4201D1002030BD31F823505B
:1081D000854202D00133F5E7034654F83300F4E753
:1081E000742D03000C2E03007CA20020094B0139E2
:1081F00003EBC000032909D8DFE801F00A020406F6
:10820000042070470079704740797047002070471C
:1082100002207047742D0300034BD3E90030C31ACA
:1082200058425841704700BF28A700202DE9F0436D
:1082300087B0FFF7F1FF0646002840F0FC807F4D35
:10824000C5F81804BFF34F8F6868AC6806AF47F8ED
:10825000100D2040033005EB80003946FFF7D2FEB9
:10826000029B18B1D5F81824002A5FD004EA030253
:10827000991C013305EB8202234005EB8303D2688E
:10828000DB68049302F00303022B0392029162D194
:10829000BDF80E306A484FEA9318B8F1500FC14646
:1082A00028BF4FF0500969F38F1309F10801ADF8A9
:1082B0000E3000F033FB0746002800F0A78000F0E6
:1082C0005CFB03A900230822384600F069FB0299F1
:1082D00024EA01060136B600B14535D95FFA89F9BD
:1082E0007EB3F6B2A9EB0609214003315FFA89F4A7
:1082F000B146544E05EB810108234A46384600F04A
:108300004FFB36B109F1080322463146384600F0EA
:1083100047FB029B08F1030803EB98030293D5F88F
:108320001834002B4BD1D5F810445BE02A689A42F0
:1083300004D86A60304607B0BDE8F08304EA030061
:1083400088E740493446D7E72140033108234A46AD
:1083500005EB8101DAE7012B58D1BDF80C30384824
:10836000C3F38311062928BF062161F38913023163
:108370008900ADF80C3000F0D1FA0746002845D04E
:1083800000F0FBFA0023082203A9384600F008FB9E
:108390000026BDF80C20C2F38312B31C96424FEAAC
:1083A0008303BCD202994A1C21400331029205EB9F
:1083B00081010422384600F0F3FA0136E9E7384635
:1083C00000F0DFFAFFF728FF80F00100C6B2B1E746
:1083D000E3685B7923B1236839461B6820469847D8
:1083E000E3681C68002CF3D1384600F0CAFA06A8EE
:1083F00000F8114DFFF7CAF8D5F818340BB9029BF5
:108400006B609DF80700FFF7F1F8DBE7D5F8104443
:1084100054B90D4B0D480E49C01AC008000440F075
:10842000020000F083F8CDE7236820469B68984758
:10843000E3681C68ECE700267CE700BF28A7002063
:108440000C2E030034A70020742D0300CC2D030054
:10845000181F03002DE9F74F2F4C80460F46914619
:1084600001A9012218469B46D4F808A0FFF7E8FDB1
:1084700000283DD0019D0026A91C5E4506EB0102A7
:1084800040D100212548FFF775F980F3100B244BEC
:10849000244A4FEA18499B1AB9EBD30F04D3224957
:1084A00040F2A31002F0FEF96B1C03EA0A0304EB8E
:1084B000830349EA0B42DA6005EA0A030333012128
:1084C00014F8232068F3C50204F8232034F823208D
:1084D00066F3891224F8232054F8232067F39F229F
:1084E00044F8232061F301026FF3820204F8232091
:1084F00094F820341BB1FFF799FE0028FBD103B09C
:10850000BDE8F08F0AEA020204EB820259F8263035
:10851000D3600136B1E700BF28A7002044AB00209C
:108520000C2E0300742D0300B31E030000231A4613
:10853000FFF790BF13B502AC012344F8042D224687
:10854000FFF788FF02B010BD07B5CDE90023022375
:108550006A46FFF77FFF03B05DF804FB1FB5CDE966
:108560000123069B039301AA0323FFF773FF05B0C2
:108570005DF804FB1FB5CDE90023069B0293079B22
:1085800003936A460423FFF765FF05B05DF804FB1B
:1085900030B5134AD2F810440023214651B9C468BB
:1085A0002371D2F810445CB9C2F81004C26811609B
:1085B000184630BDC9680D799D420AD00968EDE7BB
:1085C000E468C16824680C60D2F81024D268106096
:1085D000EEE701330A2BE0D14FF0FF33E8E700BFAD
:1085E00028A7002038B5094A0123D2F8104482F8A0
:1085F00020341D4604B938BDE3685D712368204608
:108600005B689847E3681C68F4E700BF28A7002070
:1086100010B5037A052B0C460FD0437A23B1084AD4
:1086200008492046FFF740FA07492046FFF73CFA81
:108630002046BDE81040FFF725BA002AF8D0F3E73E
:10864000631F0300681F0300881F030073B5C388FE
:1086500004460D4633B1144A00921449144A284680
:10866000FFF722FA217A05291CD0637A4BB1A08842
:10867000FFF7BCFD0F4B104953F820202846FFF7A9
:1086800013FA227A0D4BA08853F822600021FFF7DD
:1086900091FD0B4903463246284602B0BDE87040C2
:1086A000FFF702BA02B070BD631F0300731F03001F
:1086B0006B1F0300301F0300681F0300981F030097
:1086C0008B1F03002DE9F04385B01F460C9D00234E
:1086D00006460C46904695F80C902B732946384672
:1086E000FFF7B4FFB8F1060F09D8DFE808F004126D
:1086F000181F2833400031462846FFF7D5F90022DD
:1087000029463846FFF784FF85F80C9005B0BDE890
:10871000F083226831462846FFF7C6F9EFE7D4E92F
:10872000002331462846FFF7BFF9E8E7A368009326
:108730003146D4E900232846FFF7B6F9DFE7E368BE
:108740000193A36800933146D4E900232846FFF73C
:10875000ABF9D4E723690293E3680193A36800931C
:108760003146D4E900232846FFF79EF9C7E763693D
:10877000039323690293E3680193A368009331464E
:10878000D4E900232846FFF78FF9B8E708292DE937
:10879000F84F80460E4617461C4635D8002593F8FC
:1087A0000C901D7319461046FFF750FFDFF88CA0A0
:1087B000DFF88CB0AE4229D918F80520594620467A
:1087C000FFF772F90135082DF4D11A49DFF874B0BA
:1087D0002046FFF769F94FF0000A564524D918F8EA
:1087E0000A507E2D17D92E2259462046FFF75CF9F4
:1087F0000AF1010ABAF1080FEFD1012221463846E9
:10880000FFF706FF84F80C90BDE8F88F514620462C
:10881000FFF74AF9D6E702F01DFA2844427812F031
:10882000970FE0D02A46DFE703492046FFF73CF9DF
:10883000DEE700BF5E1F03005C1F03005A1F03003A
:10884000541F0300601F03002DE9F74F99469DF860
:108850003030019388461746054618B92249B6209C
:1088600002F020F8EA8895F805B00BFB02FBABF1AB
:10887000040BCB4503D81C49C42002F013F83E6812
:10888000B5F806A006EB09025A4509F1040188BFB4
:10889000ABEB0906B1FBFAF43E600AFB141144B9D4
:1088A000AAEB0107B74228BF37462EB903B0BDE88F
:1088B000F08F2D68013CF2E7019A043108EB0403C4
:1088C000681872B101463A461846F61B02F0E6F9FE
:1088D000B2453C442D6857464FF0000128BF37464B
:1088E000E3E73A461946F0E7F71F0300FEF77EBFBD
:1088F000F8B546790146721E0546002393422D685D
:1089000003D30024A64202D8F8BD0133F6E70F686E
:108910002846FEF7D7FF01343946F3E72DE9F8433F
:10892000CD1C068A0746FEF79FFF043E35440446E9
:10893000B5FBF6F5F0B14FF48073EDB28380C680DD
:10894000013D076081464FF00008A84512D2384625
:10895000FEF78AFF064648B163790133637108F177
:108960000108C9F8000007608146EEE72046FFF7DE
:10897000BFFF34462046BDE8F88301210430FEF7EE
:1089800019BF10B5012104460430FEF71EFF10F098
:10899000FF0F04D12046BDE81040FFF7A9BF10BD6E
:1089A00030B585B0144604AA002542F8044D009560
:1089B000FFF74AFF039BA34203D00349F62001F0CF
:1089C00071FF05B030BD00BFF71F030030B585B0A3
:1089D000144604AA012542F8044D0095FFF734FF20
:1089E000039BA34204D003494FF4807001F05AFF67
:1089F00005B030BDF71F03008268002393608268D2
:108A00001361826853618268D360826853608268B0
:108A10001360704738B50D46044618B90849502010
:108A200001F040FF1DB90649512001F03BFF2560D0
:108A30002B6863606A68934204BF0023636038BD9B
:108A40005020030010B5044618B90B49632001F00B
:108A500029FF23681BB90849642001F023FF6368DC
:108A600043B1226891680B4463605268934204BF2B
:108A70000023636010BD00BF502003000D4930B5D6
:108A8000A1F594720225914201D800200EE08B1AC4
:108A9000DB1093FBF5F302EBC30452F8333083424F
:108AA00005D802D204F10802EDE7606830BD214626
:108AB000E9E700BFF421030008B5FFF7DFFF024B31
:108AC000002808BF184608BDB920030010B50446A9
:108AD00018B90749A02001F0E5FE064B187920B926
:108AE00001221C601A71587110BD8520FCE700BF7F
:108AF000AE250300E4AB002008B50B4B1B791BB976
:108B00000A49B92001F0CEFE094B1A68D2075FBFAF
:108B1000E02283F8002301221A604FF080430122F3
:108B2000C3F8182508BD00BFE4AB0020AE25030044
:108B300000E100E008B5084B1B791BB90749F32099
:108B400001F0B0FE064B01221A604FF08042D2F8CD
:108B50001834DB03FBD408BDE4AB0020AE250300D2
:108B60000C00004007B5154B1A687AB100221A6054
:108B70001B680093009B4FF080430122C3F8082339
:108B80000F4B587910B95A711B6898470D4B1A68EA
:108B900082B100221A601B680193019B4FF0804351
:108BA0000222C3F80823064B1B68012003B05DF8BE
:108BB00004EB184703B05DF804FB00BF0001004060
:108BC000E4AB00200401004000F1804000F5C0400B
:108BD000002382B0036003680193019B02B07047D9
:108BE000054B4FF0FF32072843F8202084BF1B18A5
:108BF00083F84820704700BFECAB002002494FF4D7
:108C0000F37001F04FBE00BF951503001F2838B563
:108C100004460D4601D9FFF7F1FFA00000F1A04086
:108C2000D0F8003723F44033C0F80037D0F80037CD
:108C300043EA0543C0F8003738BD000010B5164CB4
:108C400094F8583033BBFF21E2180133202B82F80F
:108C50003010F9D10021C8B2FFF7C2FF01310C2951
:108C6000F9D1042200210D4802F0B2F80C4BE022A9
:108C700083F8062340221A604FF4BE70FFF7A4FF6A
:108C8000084B4FF00042C3F80423012384F8583006
:108C9000002010BD0820FCE7ECAB002040AC002019
:108CA00000E100E000600040034B93F85800003002
:108CB00018BF0120704700BFECAB00201F2870B523
:108CC00004460D4604D941494FF4987001F0EAFD7D
:108CD0003F4E96F85830012B04D03C4940F23110F9
:108CE00001F0E0FD25B939494FF4997001F0DAFD42
:108CF000331993F93020013265D1AA78002A54D073
:108D0000002356F8231001314FEA830248D131196C
:108D100002F1804281F83030002102F5C04246F86D
:108D20002310D2F810052B78697820F498101B04D2
:108D3000090520F4F85001F4801103F44033C2F81F
:108D400010050B432102D2F8100501F4F8510B4332
:108D50000343C2F810356B78012B4FF0010528D181
:108D60001F2C01D9FFF74AFF4FF0A043A540C3F8DD
:108D700008551F2C01D9FFF741FF04F5E0724FF0B1
:108D8000A043032143F82210E2081249012304F012
:108D9000070403FA04F48B5C1C438C54002003E0AA
:108DA0000133082BADD1042070BDFE2283F83020A2
:108DB000D1E71F2C01D9FFF721FF4FF0A043A540B9
:108DC000C3F80C55D5E70820EEE700BF01260300E5
:108DD000ECAB002040AC00201F28F8B5044604D9B5
:108DE0001D494FF4B47001F05DFD1C4D2B1993F932
:108DF0003030013304D1184940F2691001F052FDBE
:108E0000291991F83000072809D8FFF7E9FE91F9F0
:108E10003030134A03F5A273002142F82310254491
:108E2000FF23104F85F83030E60804F007030125D2
:108E30009D40BB5D2B420ED01F2C01D9FFF7DEFEFB
:108E40004FF0A04304F5E074022243F82420BB5DF8
:108E500023EA0505BD55F8BD01260300ECAB002053
:108E60000060004040AC00201F2838B5054604D9FA
:108E700012494FF4BE7001F015FD114C621992F9C0
:108E80003020013204D10D4940F27D1001F00AFD7D
:108E9000631993F83030072B04D808494FF4BF709A
:108EA00001F000FD1F2D01D9FFF7A8FE012303FAF1
:108EB00005F54FF0A043C3F8085538BD012603005F
:108EC000ECAB00201F2838B5054604D912494FF4F1
:108ED000C37001F0E7FC114C621992F930200132A5
:108EE00004D10D4940F2871001F0DCFC631993F8BE
:108EF0003030072B04D808494FF4C47001F0D2FC7D
:108F00001F2D01D9FFF77AFE012303FA05F54FF073
:108F1000A043C3F80C5538BD01260300ECAB00207C
:108F20001F2838B5054604D914494FF4CD7001F017
:108F3000B9FC134C631993F93030013304D10F4954
:108F400040F29B1001F0AEFC631993F83030072B10
:108F500004D90A494FF4CE7001F0A4FC2C4494F9D2
:108F600030309B0003F1804303F5C043D3F8102554
:108F700042F00302C3F8102538BD00BF01260300EC
:108F8000ECAB00201F2838B5054604D90D4940F246
:108F9000B91001F087FC0C4C631993F83030072BA3
:108FA00004D908494FF4DD7001F07CFC601990F998
:108FB00030000C308000C0B200F1804000F5C040AD
:108FC00038BD00BF01260300ECAB00201F2838B5D8
:108FD000054604D90D494FF4E37001F063FC0C4CD5
:108FE000631993F83030072B04D9084940F2C710B1
:108FF00001F058FC601990F9300018308000C0B2C0
:1090000000F1804000F5C04038BD00BF01260300DC
:10901000ECAB00201F2870B506460D4604D9174951
:109020004FF4E97001F03EFC154CA31993F9303070
:10903000013304D1114940F2D31001F033FCA319DC
:1090400093F83030072B04D90C494FF4EA7001F043
:1090500029FC3444003594F930304FEA830303F19E
:10906000804303F5C04318BF0125D3F8101521F440
:10907000801141EA0551C3F8101570BD01260300A7
:10908000ECAB00202DE9F04F87B000245B4A5C4E2A
:109090005C4D039401211368A2F5C040012B80B2FE
:1090A00006D1D6F804330B4202D0FFF78DFD0C43F6
:1090B0000432AA424FEA4101EDD1534B1B68012B08
:1090C0000AD14FF4BE70FFF77FFD4FF0A04344F08C
:1090D0000044D3F81035039314F0FF0F1AD04B4F10
:1090E00000250126344210D0AB0003F1804303F584
:1090F000C043D3F81005D3F8101557F82530C0F346
:109100000420C1F3014103B198470135082D4FEA0E
:109110004606E7D1002C6EDA00224FF0FF33CDE98E
:1091200004233A4F4FF0000A56464FF0A04907EB90
:109130000A0393F95040631C46D0E4B2012224F0A4
:10914000C00504F0070B02FA0BFBEB0806AAD118C6
:1091500011F8042C12EA0B0F36D07A19A40992F9EF
:10916000302057F82280B8F1000F0AD1032C2BD100
:109170000DF1100C1CF8030040EA0B000CF8030082
:1091800001E0032CF4D01F2D03D90191FFF736FD28
:10919000019911F80C1C05F5E07311EA0B0F59F851
:1091A0002330C3F3014320D0022B0DD1032C05D172
:1091B00021462846FFF72AFD0136F6B2B8F1000F26
:1091C00002D021462846C0470AF1010ABAF1040F2D
:1091D000ADD186B14FF0A043039AD3F810359A422F
:1091E00009D00393049B05939CE7032BECD1032C3C
:1091F000E4D10221DDE707B0BDE8F08F0061004057
:1092000000600040206100407C610040ECAB002029
:109210002DE9F74F4FF00009154D164E07464FF058
:10922000040AC8465FFA89FB01240DF1070004FA1D
:109230000BF48DF80780FEF7A9F92C4208D03368AB
:1092400014EA030201BF2343336087F800B092465B
:109250009DF80700FEF7CAF9BAF1000F03D0A54345
:1092600009F10109DED1504603B0BDE8F08F00BF1F
:10927000FFFF010048AC002037B501258540C5F34C
:109280001003A3B10B4B02A80024C3F8085500F843
:10929000014DFEF77BF9084A9DF80700136823EAA1
:1092A00005051560FEF7A2F9204603B030BD072082
:1092B000FBE700BF00F0014048AC002010B5A1B1B1
:1092C0009AB101238340C3F3100484B10A4C24688B
:1092D00023420ED0C00000F1804000F5F830C0F805
:1092E0001015C0F81425002010BD0E20FCE7072043
:1092F000FAE70820F8E700BF48AC0020012303FA92
:1093000000F0430C5B044BB918B1064B1B681842C4
:1093100006D0054BC3F804050020704707207047AE
:109320000820704748AC002000F00140012303FAF8
:1093300000F0430C5B044BB918B1064B1B68184294
:1093400006D0054BC3F8080500207047072070477A
:109350000820704748AC002000F0014010B5054CD3
:1093600022681AB90449512001F09CFA2368BDE82B
:10937000104018474CAC00205A26030000234350ED
:1093800082B043580193019B02B0704770B5D0F88A
:10939000103105460C4653B14FF48871FFF7EEFFCC
:1093A00063795A0703D523680BB101209847D5F894
:1093B00014315BB14FF48A712846FFF7DFFF637900
:1093C0001B0703D523680BB102209847D5F81C3141
:1093D0005BB128464FF48E71FFF7D0FF607910F033
:1093E000100002D1236803B19847D5F8043163B166
:1093F0004FF482712846FFF7C1FF012323712368D0
:109400001BB10320BDE87040184770BD01490248F8
:10941000FFF7BCBF54AC002000C001400149024826
:10942000FFF7B4BF5CAC00200010024001490248C5
:10943000FFF7ACBF64AC00200020024000F1804088
:1094400000F5E040002382B0036003680193019BB4
:1094500002B07047F0B5514B514C1B6885B0DBB181
:109460004FF4827094F82E20FFF7E8FF12B194F8C1
:109470002F30A3B1636802932389ADF80C30E36801
:1094800000218DF80410002B44D12374236801A817
:109490009847002384F82F3094F82E3003B3414BC3
:1094A0001B68EBB14FF48070FFF7C8FF94F82D20D4
:1094B000638B91B28B4238D95B1A21899BB263834B
:1094C000CB1A616801EB4301374BC3F82C16C3F884
:1094D00030264FF48270FFF7B1FF344B01221A603F
:1094E000334B1B685BB14FF48870FFF7A7FF002375
:1094F00004A82374022300F80C3D236898472D4BE1
:109500001B6813B34FF48A70FFF798FF002323748E
:1095100005B0F0BD208B608363602081E160002A8C
:10952000B4D1214B01221A60B0E7D2D1E368012106
:1095300084F82F103BB1002161831B49C1F82C3600
:10954000C1F83026C5E76383C3E766694FF000477B
:109550000125002EDCD0B6FA86F227FA02F3463255
:10956000920026EA030602F1804303F5E0431B68FC
:10957000002BEED01046FFF761FFA2F58C72D308E6
:1095800082F00402C2F380028DF808308DF8045096
:109590008DF80920236801A89847DAE70471004094
:1095A0006CAC00200071004000700040047000406E
:1095B000107100401471004070B50E46054618B990
:1095C0002949D62001F06EF91EB92749D72001F0AC
:1095D00069F9264C94F82C30002B43D1244A297881
:1095E0002660C2F8F0156978C2F8F415E97884F8B5
:1095F0002E102374012184F82D30636184F82F30FC
:109600006FF0004384F82C104FF48270C2F80833D6
:10961000FFF714FF4FF48070FFF710FF4FF48A70CC
:10962000FFF70CFFAD78AB1E012B06D96B1F022B89
:1096300003D910496B2001F035F90F4B6D018022E1
:10964000EDB283F807531A60094B0222C3F80423D2
:1096500094F82E10012209B1C3F80423C3F80025A1
:10966000002070BD0820FCE7B12603006CAC002090
:1096700000700040FE26030000E100E070B53E4EA1
:1096800096F82C3004460D4623B93C4940F223108D
:1096900001F008F9072C04D938494FF4927001F011
:1096A00001F9374BD3F8F43513F0FF0F07D096F8D4
:1096B0002D3023B1314940F2271001F0F3F8EB7956
:1096C000013B082B04D92D4940F2291001F0EAF89A
:1096D0002B7A092B04D929494FF4957001F0E2F84F
:1096E000337C002B45D104F10C0206EB42031B79BD
:1096F00023B996F82D30013386F82D3006EB42065B
:10970000EB7933712B7AAA7873716B7812021B0193
:1097100002F4E06203F0300313432A7802F00302FC
:109720001343EA78120302F4805213432A79120495
:1097300002F4E02213436A79120502F48012134303
:10974000AA79120602F080721343220102F18042CC
:1097500002F5E042240104F18044C2F8183504F512
:10976000E044EB792A7AC4F814250020C4F81035B7
:1097700070BD1120FCE700BF6CAC0020B1260300D7
:109780000070004070B5364C227C02F0FF03002AC6
:1097900064D1344A012503262574C2F80863C2F84F
:1097A0002C16C2F8305694F82D20AA420CD919462E
:1097B0001A0102F1804202F5E0420133082BC2F89F
:1097C0001415C2F81015F3D100F10C03000104EBDD
:1097D000430300F1804000F5E0401A795B79C0F85E
:1097E0001435C0F810251F4A01231360536042F25C
:1097F000107302F58272116831B9013BFBD11A492D
:1098000040F29B1001F04EF84FF48070FFF716FE07
:109810004FF48270FFF712FE94F82D30012B11D90E
:109820000F490022130103F1804303F5E0430132A5
:10983000087F4D7FC3F81455082AC3F8100501F1BD
:109840000201EFD194F82E20064B2AB1032200200A
:10985000C3F80423207470BD0222F8E71120FAE750
:109860006CAC002000700040B126030002494FF4A8
:10987000F37001F017B800BF951503001F2810B54D
:10988000044601D9FFF7F2FF012303FA04F44FF075
:10989000A043C3F80C4510BD1F2810B5044601D9DC
:1098A000FFF7E4FF012303FA04F44FF0A043C3F8E9
:1098B000084510BD13B54FF04023D3F818310BB352
:1098C000114B124C00221A601B680193019B236804
:1098D00023B90F494FF4277000F0E4FFE07FFF2821
:1098E00003D0A37F5BB1FFF7C9FF00236377237227
:1098F000D4E90031074802B0BDE810401847FFF72F
:10990000CBFFF2E702B010BD184100409CAC002034
:1099100048270300A4AC00202DE9F74300240646A5
:109920000F4600F5A0754FF48038A14604F15000B1
:109930002B68800080B26BB1D6F8043308FA04F2C9
:109940001A4207D0C5F800902B680193019BD7E914
:10995000003198470134042C05F10405E6D103B029
:10996000BDE8F0832DE9F347544B077915460268AB
:109970009A4204460E4603D15149482000F092FF16
:109980001EB94F494A2000F08DFF1DB94C494B20AC
:1099900000F088FF4B4A0C2303FB072390461B7AF9
:1099A000002B40F089802368444A93420FD002F58F
:1099B000805293420BD002F58052934207D002F5B9
:1099C0008032934203D002F58052934202D1B378A1
:1099D000032B03D93A495F2000F064FF0C237B433B
:1099E00008EB030248F803507368536000221546E1
:1099F00060792168D3B2984202F1010254D8F57817
:109A0000AB1E4FEA113A012B4FFA8AF906D96B1FA8
:109A1000022B03D92C496B2000F044FFB9F1000F51
:109A2000AEBF09F160430AF00F03284A28484FEA05
:109A30004515EDB2AABF03F56143D55483F8005331
:109A400023681B0B59B24909012203F01F0302FAD4
:109A500003F340F8213020687378D0F8041503F040
:109A6000030321F003010B43C0F804352068B378E9
:109A7000D0F8081503F0030321F003010B43C0F8ED
:109A8000083520683378D0F8101503F00F0321F063
:109A90000F010B43C0F810350C2303FB0787002090
:109AA0003A7202B0BDE8F0879B0003F5A073CD5079
:109AB000CB580193019B9BE70820F2E70080004010
:109AC00099270300C0AC0020FE26030014ED00E03F
:109AD00000E100E038B50B4C02790C2101FB024299
:109AE0000546127A012A03D007498F2000F0DAFEDA
:109AF0002B6801221A602B790C2202FB03430222FD
:109B00001A7238BDC0AC00209927030038B50A4C42
:109B100002790C2101FB02420546127A1AB9074963
:109B2000972000F0BFFE2B6801221A612B790C21CF
:109B300001FB03431A7238BDC0AC00209927030013
:109B400038B503681B0B5AB20121520903F01F03F9
:109B500001FA03F320320C4941F822300368002552
:109B6000D3F80022C3F8005203684FF0FF320446D6
:109B7000C3F80823FFF7CAFF2379044A0C2101FB2D
:109B800003231D7238BD00BF00E100E0C0AC00201F
:109B900010B5084A03790C2101FB032304461B7A04
:109BA0001BB90549B32000F07DFE23680122DA606D
:109BB00010BD00BFC0AC00209927030073B54FF45F
:109BC00080348C4005688BB101F150039B00002666
:109BD000EE50EB580193019B0368C3F804430368FC
:109BE00001F5A87143F8212002B070BDC5F8084303
:109BF000F5E7F0B407689DF810C0D7F8004240F2CE
:109C000001158D4024EA0504C7F800420568D5F81F
:109C100000422343C5F80032F0BC6346FFF7CEBFD5
:109C200037B5134A03790D460C2101FB0323044683
:109C30001B7A1BB90F49FB2000F034FE6379AB425D
:109C400003D80C49FC2000F02DFE05F150039B00C9
:109C500022689BB20021D150D3580193019B236805
:109C60004FF48031A940C3F8041303B030BD00BFE6
:109C7000C0AC00209927030038B50E4A03790D4681
:109C80000C2101FB032304461B7A23B90A4940F245
:109C9000071000F007FE6379AB4204D806494FF481
:109CA000847000F0FFFD23684FF48031A940C3F8B1
:109CB000081338BDC0AC00209927030001490248B1
:109CC000FFF72ABEC0AC00200080004001490248D6
:109CD000FFF722BECCAC00200090004001490248B2
:109CE000FFF71ABED8AC002000A00040002343506C
:109CF00082B043580193019B02B07047F0B5504CBD
:109D0000236887B023B94F4940F2452000F0CAFDCF
:109D10004D4AD2F824311546A3B14FF49271104642
:109D2000FFF7E4FFD2F8043163B9A368C2F808333F
:109D30000223A360A368C2F80433012313625361B2
:109D400007B0F0BDD5F80431002B49D03F4F3E4855
:109D50004FF48271FFF7CAFF0FCF01AE0FC63B6809
:109D6000336094F82E307BB1237B012B0CBFD5F8E8
:109D70003C25D5F84C250292022B334B0CBFD3F86F
:109D80003C35D3F84C3503934FF4B0712E48FFF7B0
:109D9000ADFF4FF4AE712C48FFF7A8FF94F83030B8
:109DA00013B194F82E303BB1274B0022C3F80022A8
:109DB000A260274AC3F80823234AD2F8C434C2F861
:109DC000C4349A0736D501238DF8003094F830302A
:109DD0000BB984F82F30D4E9003168469847AFE7D3
:109DE0004FF4A4711848FFF781FF237B83B9174F05
:109DF0000FCF01AE0FC63B68336094F83030002BB4
:109E0000DAD1C5F80032A360114BC5F80833D3E7A7
:109E10004FF40073C5F8003240F20223A36003F14F
:109E2000CE73C5F80833A368C5F804330123AB60CB
:109E30002B6285E713F0040318BF0223C4E700BFB9
:109E4000E4AC0020EC27030000300040F0AC002020
:109E500002029C0170B5C0B14AB116880024B44218
:109E600003D305196D789D4208D0A14201D8002086
:109E70000BE0055D01352C44A4B2F0E7A142F6D910
:109E8000A31C1380005D013880B270BD37B502ACF1
:109E9000002324F8023D134622460546FFF7DAFF69
:109EA00010B1BDF80600284403B030BD72DF704722
:109EB00073DF704738B5012204460D46B0F83812FA
:109EC000D0F83402FFF7E2FF00B1057004F13C0264
:109ED00004F50D7104F15400BDE83840FFF7E6BF0A
:109EE000F8B5077804460D46002F00F0058100F212
:109EF0004A26A17007220021304600F069FFE3885E
:109F000013B1A378012B04D0E3794BB1A378022BD2
:109F100006D1636BA3B1012284F85122082098472F
:109F2000334604F5147113F8012F12B99942FAD18E
:109F300017466B1E032B53D8DFE803F0050B0F12F7
:109F400084F85132ECE7A3791BB194F8243003B9BB
:109F50005FB9E3790BB1002F44D1237A002B43D1B1
:109F6000637A002B0CBF00250425636BA570002BC2
:109F70003CD0033D012D39D86279002A36D094F8BF
:109F80005222002A32D184F85422012284F853222A
:109F90000720984704F13C0518220021284600F0CC
:109FA00017FFE36A94F824200121581E884288BFD5
:109FB0000B4684F83C1084F8513032B1884296BF89
:109FC000A36A84F8521084F85230A178002384F8F0
:109FD000503004291BD8DFE801F0770D22355900F5
:109FE0000025C2E70225C0E70325BEE7002384F869
:109FF0005332CFE7C4F84432C4E91063022301228C
:10A0000084F83C30802384F83120A4F84830A378C9
:10A01000002B5CD1636B002B6AD1002067E0022328
:10A0200084F8313062B1072384F83C302369A4F806
:10A0300048300023C4F84432E36826646364E6E7EA
:10A040000323F1E763696364A369A4F8483012B19C
:10A05000062384F83C306379B3B194F852329BB94B
:10A0600094F8543283B1022384F8503004212046FE
:10A07000FFF720FF0028CAD1052384F8313004F50A
:10A080000D73C4F84432C2E70323F6E7E36963645F
:10A09000236AA4F8483012B1062384F83C3063796F
:10A0A00083B194F852326BB994F8543253B102230D
:10A0B00084F8503004212046FFF7FCFE0028A6D18A
:10A0C0000623DAE70423D8E784F831309FE72A46ED
:10A0D000D4F8441204F15400FFF7E8FE38B994F8BC
:10A0E000301094F85400FFF7E3FE002892D0F8BD3A
:10A0F00094F83100984790E70820F8E710B50388F6
:10A10000112B0C460AD0262B1FD0102B05D1C37B58
:10A11000012B02D18388A1F8483210BD002381F8B9
:10A1200052328288B1F848329A42F6D10B79002B2C
:10A13000F3D101212046FFF7D3FE0028EDD0A36B19
:10A14000002BEAD0BDE810401847037A013B012BF1
:10A15000E3D889780523013191FBF3F303EB830303
:10A16000C91AC9B2E6E77047034B1A8882420CBF8E
:10A1700018460020704700BF34AD0020024B9B6999
:10A1800003B11847704700BF18AD002013B50B4648
:10A19000497A0F4C024669B9D4E901101C7A002CA7
:10A1A00018BF01465868FDF78FF908B1FFF7E6FFC1
:10A1B00002B010BD002119726369002BF8D0012193
:10A1C000ADF806008DF8041001A89847F0E700BF2D
:10A1D00018AD002030B583880588B3F5FA7F24BF19
:10A1E0006FF4F9729C184A8838BF002495420CD845
:10A1F0004088904209D38A88A24206D303F2F31022
:10A20000904234BF0020012030BD0020FCE7000058
:10A2100070B50388112B014648D002D8102B1ED0F0
:10A2200070BD122B52D0502BFAD12F4BC288DB8934
:10A230009A42F5D1038A022BF2D186883046FFF785
:10A2400093FF05460028EBD001F1120000F050F812
:10A2500030BB6868FDF77CF90028E1D009E0C37BDA
:10A26000012BDDD14FF6FF70FFF77EFF054620B9C9
:10A270000420BDE87040FFF781BF8E881B4A06802E
:10A28000002303721368C5F80A300A30536843602C
:10A290001031FFF79FFF144B6872DB89002BBFD191
:10A2A00029463046BDE87040FFF770BF8088FFF751
:10A2B0005BFF04460028B3D04068FDF749F908B1B8
:10A2C000FFF75CFF4FF6FF732380A9E786883046CF
:10A2D000FFF74AFF05460028A2D008310A30FFF7F1
:10A2E00079FF6872DCE700BF18AD002048AD0020A0
:10A2F000007800F00100704790DF7047A5DF7047DD
:10A30000B5DF70477FB50023ADF80810ADF80A102F
:10A310006A4602A9064603930093ADF80430FFF79E
:10A32000EBFF0546F8B1114B114CE41AE408FEF7B7
:10A33000C3FB240444F00104034632460D49204681
:10A34000FEF702F9BDF80020BDF8023002B91BB1DA
:10A3500009492046FEF7F8F8BDF804201AB107496C
:10A360002046FEF7E7F8284604B070BD742D0300C0
:10A37000E42D03004828030092280300D12803009D
:10A3800013B5034680880C46A0B91A88232A00F02A
:10A39000AF8011D8102A25D0112A54D0A37A4BB1FE
:10A3A000E1880020FFF7AAFF002840F0A7800123E2
:10A3B000A072E37202B010BD3A2A4ED0552A68D07E
:10A3C000242AEBD11A7A0B694A73002BE6D04DF69A
:10A3D0007A21ADF80400ADF80010ADF802008DF858
:10A3E000042081E00A790A73DB7B012B13D0022B56
:10A3F00014D0E18823898B4205D20020FFF77EFF2D
:10A4000070B90123E372217B637B8B42C6D20020AB
:10A41000FFF778FFC2E70B88E380EAE74B88FBE7AA
:10A42000112802D10123A372EDE7FEF745FB3C4A58
:10A430003C4B3D499B1ADB081B04024643F00100DC
:10A44000FEF778F8DFE7F723CB8017230B8141F67F
:10A45000FB338872C8728B81A0E75B89CA889342FC
:10A4600028BF1346172B0A6938BF17230B8162B127
:10A47000C97A51B140F67721ADF80010ADF802006D
:10A48000ADF804306946204690470023E372A3727A
:10A4900084E7DB88C988A072172B38BF17238B424B
:10A4A00028BF0B462381FFF72BFF60B1FEF704FBAB
:10A4B0001B4A1C4B1D499B1ADB081B04024643F038
:10A4C0000100FEF737F8E27A002A7FF467AF2369CC
:10A4D000002B3FF463AF40F67721ADF802202289CC
:10A4E000ADF80010ADF8042069462046984755E7BE
:10A4F000197A237B994228BF194689E711283FF42E
:10A5000059AFFEF7D9FA064A064B07499B1ADB08F2
:10A510001B04024643F00100FEF70CF84AE700BFB7
:10A52000742D0300E42D030027290300582903009C
:10A53000B0DF704766DF704710B5034600214088E2
:10A54000FFF7F8FF024608B91A7210BD112801D1B1
:10A550000122F9E75B68BDE81040184728B103788D
:10A56000DE2B04D14180002070470E207047082068
:10A570007047F0B5054685B00C46F1B1E8B10B78EF
:10A58000DE2B1AD182884B889A4204D10B7A13B100
:10A590000846FFF7D1FF2B88112B32D0512B0ED05C
:10A5A000012B0AD12B7A012B07D1A988628891420D
:10A5B00003D123722046FFF7BFFF05B0F0BDAE8880
:10A5C0006388B342F9D1AF79022FF6D1AD7B2B1F4F
:10A5D000022BF2D800211022684600F0F9FB052D6D
:10A5E00014BF4FF4C0730023694630468DF80070E5
:10A5F000ADF80430FFF79CFF0028DED06368984771
:10A60000DBE76388AA889A4204BF4FF6FF73638032
:10A61000D3E70000014B1878704700BF50AD002011
:10A6200007B508496846FEF7F5F9019B13B903B071
:10A630005DF804FBD3E9002090476846FEF702FA74
:10A64000F3E700BF94290300FFF7EABF61DF70471B
:10A6500030B5134DADF5017D4FF4FA740DF10201E3
:10A6600003A8ADF80240FFF7F1FF70B9294601A831
:10A67000FEF7D0F9029B002BF0D003A8D3E900210C
:10A68000904701A8FEF7DEF9F4E7052804D0054A53
:10A6900040F23911FCF7EDF90DF5017D30BD00BF39
:10A6A000FC290300A8290300024B1B780BB1FFF71C
:10A6B000CFBF704751AD002076DF70477FDF704716
:10A6C00086DF70478ADF70478FDF7047B1DF7047E2
:10A6D00033DF704737B503881D2B044600F0AC808C
:10A6E0001DD8132B7CD00AD8102B3DD0112B5DD058
:10A6F000604B13B12046AFF3008003B030BD142B84
:10A7000000F08C801B2BF3D1037A012BF0D1FFF7E3
:10A71000DFFF0028ECD0584A4FF4CC716DE0502B8D
:10A7200052D00ED8212B00F096803B2BE0D1132184
:10A730008088FFF7C1FF0028DAD04F4A4FF4D0716C
:10A740005BE0522B5CD045D3562BD1D18379002BC3
:10A75000CED14A4B13211888FFF7AEFF0028C7D08F
:10A76000454A40F2A71148E0444D81884448298079
:10A77000FFF7F4FE20B1404A4FF49D71FCF779F9E0
:10A7800000231A4619462888FFF7A0FF20B13A4A4D
:10A790004FF4A171FCF76DF93A4800F063FB3A4BB6
:10A7A000002BA5D02046AFF30080A1E7334B3748FC
:10A7B0004FF6FF721A8000F055FB354B002B97D0F7
:10A7C0002046AFF3008093E7324B002B90D0AFF3DD
:10A7D00000808DE7304B002B8AD0AFF3008087E7F5
:10A7E000264800231A4685210088FFF767FF0028C6
:10A7F0003FF47EAF204A40F28111FCF73AF977E747
:10A800001E4800231A4619460088FFF75FFF0028FC
:10A810003FF46EAF184A40F28711EEE71748002365
:10A820001A4619460088FFF74BFF00283FF460AF37
:10A83000114A40F29111E0E7184B0BB1AFF30080E1
:10A8400017490020FFF73EFF00283FF451AF0A4AA6
:10A8500040F2C711D1E702A9002321F8043D808806
:10A86000FFF732FF00283FF443AF034A40F2D11113
:10A87000C3E700BF00000000392A0300D8B0002061
:10A88000C0AF0020682A030000000000782A0300FF
:10A8900000000000000000000000000000000000B8
:10A8A000B098002038B50D460446044800F0DAFAA6
:10A8B0002A4621460248FCF7DCF838BD142A03007A
:10A8C000EFBEADDE0C4B1B78062B10D10B4B1B687B
:10A8D0001A070CD10A4B186800F0F003302B08D08F
:10A8E00000F0E000A0F140035842584170470020BA
:10A8F00070470120704700BFE00F00F0E40F00F048
:10A90000E80F00F0094B1B78062B0CD1084B1B6895
:10A910001A0708D1074B186800F0F000A0F13003C7
:10A920005842584170470020704700BFE00F00F0C8
:10A93000E40F00F0E80F00F008B5FFF7C3FF28B1FF
:10A940007D4B7E4A1B68C3F304231360FFF7DAFFD5
:10A9500010B17B4B7B4A1A60FFF7B4FF28B17A4BEA
:10A960007A4A1B68C3F342331360FFF7CBFF20B171
:10A97000774AD36823F08073D360FFF7A3FF40B119
:10A980004FF080430022C3F80C21C3F81021C3F814
:10A990003825FFF7B7FF10B16E4B03221A60FFF79F
:10A9A000B1FF40B16C4B05221A6001229A67002268
:10A9B0009A603F225A60694B1B78062B50D1684B36
:10A9C0001B6819074CD1674B1B6803F0F003502B31
:10A9D00046D14FF08052644BD2F80414C3F82015CE
:10A9E000D2F80814C3F82415D2F80C14C3F82815AB
:10A9F000D2F81014C3F82C15D2F81414C3F830157B
:10AA0000D2F81814C3F83415D2F81C14C3F8401542
:10AA1000D2F82014C3F84415D2F82414C3F848150A
:10AA2000D2F82814C3F84C15D2F82C14C3F85015DA
:10AA3000D2F83014C3F85415D2F83414C3F86015A2
:10AA4000D2F83814C3F86415D2F83C14C3F868156A
:10AA5000D2F84014C3F86C15D2F84424C3F870251A
:10AA6000FFF730FF28B1414B414A1B6803F04F0309
:10AA70001360FFF727FF48B14FF08043D3F800245D
:10AA8000D20744BF6FF00102C3F80024394B1B68A2
:10AA9000062B08D1384B1B68062B01BF374A1368B9
:10AAA00043F480631360364AD2F8883043F470036D
:10AAB000C2F88830BFF34F8FBFF36F8F4FF0102372
:10AAC000D3F80022002A03DBD3F80432002B2FDA5C
:10AAD0002C4B0122C3F80425D3F80024002AFBD014
:10AAE0004FF010221521C2F80012D3F80024002ADA
:10AAF000FBD04FF010231522C3F80422214B1A4635
:10AB0000D3F800140029FBD00021C3F80415D2F8B3
:10AB10000034002BFBD0BFF34F8F19491A4BCA6882
:10AB200002F4E0621343CB60BFF34F8F00BFFDE739
:10AB3000164B174A1A6008BD240300104035014027
:10AB400074C007400DF0ADBA440200103C0500404F
:10AB5000F0ED00E0A005004010560040E00F00F0CE
:10AB6000E40F00F0E80F00F000C0004058020010B1
:10AB7000E40E004030010010340100103C1700408A
:10AB800000ED00E000E001400400FA05B898002064
:10AB90000090D0030649074A074B9B1A03DD043B8C
:10ABA000C858D050FBDCFFF7C7FEFBF749FB00009D
:10ABB000702E0300A89800207CA20020FEE7FEE78C
:10ABC000FEE7FEE7FEE7FEE7FEE7FEE7FEE7FEE75D
:10ABD00008B50021044602F001F9044B1868C36B64
:10ABE00003B19847204605F0B3F900BF8C2A030053
:10ABF00070B50D4E0D4D761BB61006D000240134F5
:10AC000055F8043B9847A642F9D1094E094D761BE9
:10AC100006F0CCFBB61006D00024013455F8043BF6
:10AC20009847A642F9D170BD6CA200206CA200200A
:10AC300078A200206CA20020044B054A1B685B6BC5
:10AC4000002B08BF134693F828017047BC980020DA
:10AC5000E89C0020044B054A1B685B6B002B08BF77
:10AC60001346D3F8EC007047BC980020E89C002005
:10AC700082B049B15AB16BB113780B601278101CD5
:10AC800018BF012002B0704701A9002AF3D1104675
:10AC900002B070476FF00100F4E700BF844641EA5C
:10ACA000000313F003036DD1403A41D351F8043B44
:10ACB00040F8043B51F8043B40F8043B51F8043B96
:10ACC00040F8043B51F8043B40F8043B51F8043B86
:10ACD00040F8043B51F8043B40F8043B51F8043B76
:10ACE00040F8043B51F8043B40F8043B51F8043B66
:10ACF00040F8043B51F8043B40F8043B51F8043B56
:10AD000040F8043B51F8043B40F8043B51F8043B45
:10AD100040F8043B51F8043B40F8043B51F8043B35
:10AD200040F8043B51F8043B40F8043B403ABDD2A4
:10AD3000303211D351F8043B40F8043B51F8043B46
:10AD400040F8043B51F8043B40F8043B51F8043B05
:10AD500040F8043B103AEDD20C3205D351F8043BD5
:10AD600040F8043B043AF9D2043208D0D2071CBFA1
:10AD700011F8013B00F8013B01D30B8803806046CA
:10AD8000704700BF082A13D38B078DD010F0030340
:10AD90008AD0C3F10403D21ADB071CBF11F8013BB0
:10ADA00000F8013B80D331F8023B20F8023B7BE7FF
:10ADB000043AD9D3013A11F8013B00F8013BF9D22A
:10ADC0000B7803704B7843708B78837060467047C4
:10ADD000F0B4860743D0541E002A3ED0CAB20346C0
:10ADE00002E014F1FF3438D303F8012B9D07F8D1AA
:10ADF000032C2BD9CDB245EA05250F2C45EA054594
:10AE000016D9A4F110073F0903F1200606EB071637
:10AE100003F1100242E9045542E902551032B242F0
:10AE2000F8D104F00F040137032C03EB07130DD9FD
:10AE30001E462246043A032A46F8045BFAD8221F2B
:10AE400022F003020432134404F003042CB1C9B20B
:10AE50001C4403F8011B9C42FBD1F0BC7047144614
:10AE60000346C5E70FB400B5074983B004AB0868D3
:10AE700053F8042B8168019300F0B2F903B05DF838
:10AE800004EB04B0704700BFBC98002000290CBF41
:10AE9000022200224FF4806300F000B82DE9F04355
:10AEA0005D4C256883B00446884616461F4615B19A
:10AEB000AB6B002B7ED0022E05D0012E00F2A980B4
:10AEC000002FC0F2A680636EDA0735D521462846EA
:10AED00003F04CF8216B41B104F14003994202D0D8
:10AEE000284603F041F900232363B4F90C30002213
:10AEF0001806A261626061D423F44A6323F003035D
:10AF0000022EA3811FD10025616E002004F14302AF
:10AF100043F00203A060C9074FF00100A381226043
:10AF2000C4E9042004D49B0502D4A06D03F04EFABA
:10AF3000284603B0BDE8F083A3899B05C6D4A06D65
:10AF400003F042FAC2E701AB6A462146284603F005
:10AF50003FFAA3891843A081002F36D1009F3846BD
:10AF600003F0AEFA8046002842D0A38943F0800364
:10AF7000A381AB6B7BB3009AB4F90C30C4F80080AA
:10AF8000BA421CBF43F40063A381012E04BF43F007
:10AF90000103A3819BB213F00802C4E904871ED108
:10AFA000A260656E15F00105BDD00025284603B0EE
:10AFB000BDE8F083284603F035F87CE72169284690
:10AFC00003F0D2F8B4F90C3096E7B8F1000FC6D010
:10AFD000AB6B002BCFD1284603F024F8CBE7DA0780
:10AFE00004D57F420022A761A260DAE7A760D8E714
:10AFF000DDF80090B94504D1B4F90C304FF0FF35BD
:10B0000082E7484603F05CFA80460028F4D04F46B9
:10B01000ABE74FF0FF358BE7BC98002080EA0102D8
:10B02000844612F0030F4FD111F0030F32D14DF8C7
:10B03000044D11F0040F51F8043B0BD0A3F1013281
:10B040009A4312F0803F04BF4CF8043B51F8043B94
:10B0500016D100BF51F8044BA3F101329A4312F00C
:10B06000803FA4F101320BD14CF8043BA24312F013
:10B07000803F04BF51F8043B4CF8044BEAD0234610
:10B080000CF8013B13F0FF0F4FEA3323F8D15DF8C2
:10B09000044B704711F0010F06D011F8012B0CF88A
:10B0A000012B002A08BF704711F0020FBFD031F802
:10B0B000022B12F0FF0F16BF2CF8022B8CF8002089
:10B0C00012F47F4FB3D1704711F8012B0CF8012B0C
:10B0D000002AF9D1704700BF000000000000000006
:10B0E0000000000000000000000000000000000060
:10B0F0000000000000000000000000000000000050
:10B1000090F800F06DE9024520F007016FF0000CA7
:10B1100010F0070491F820F040F049804FF000044F
:10B120006FF00700D1E9002391F840F000F108002A
:10B1300082FA4CF2A4FA8CF283FA4CF3A2FA8CF362
:10B140004BBBD1E9022382FA4CF200F10800A4FAC9
:10B150008CF283FA4CF3A2FA8CF3E3B9D1E904231D
:10B1600082FA4CF200F10800A4FA8CF283FA4CF354
:10B17000A2FA8CF37BB9D1E9062301F1200182FA0E
:10B180004CF200F10800A4FA8CF283FA4CF3A2FA14
:10B190008CF3002BC6D0002A04BF04301A4612BA22
:10B1A000B2FA82F2FDE8024500EBD2007047D1E925
:10B1B000002304F00305C4F100004FEAC50514F0B4
:10B1C000040F91F840F00CFA05F562EA05021CBF85
:10B1D00063EA050362464FF00004A9E7000000009F
:10B1E0002DE9F04FD7B01C46894617460546039017
:10B1F00003F0D8F8036816931846FFF781FF089408
:10B2000015901DB1AB6B002B00F00781D9F86410CD
:10B21000B9F90C20C80793B202D4990540F11F81F7
:10B220009E040AD4D9F8641042F4005321F400516A
:10B23000A9F80C30C9F864109BB21D0740F1B28028
:10B24000D9F81020002A00F0AD8003F01A020A2A73
:10B2500000F0C98000239FED867B1093CDE92B334E
:10B260001793CDE919331B93189305932DAB2A93AC
:10B270009B463B78CDF81C908DED127B002B00F0A7
:10B280005982252B3C4602D11DE0252B03D014F812
:10B29000013F002BF9D1E51B8DB1DDE92B320133E4
:10B2A0002A44072BCBF80070CBF80450CDE92B32A1
:10B2B00000F3CA800BF1080B059B2B440593237800
:10B2C000002B00F0378200236678069398468DF8AD
:10B2D0008B3004F1010A4FF0FF392B250AF1010AE6
:10B2E000A6F120035A2B00F22A84DFE813F0AA0308
:10B2F000280428049C02280428042804A7022804FF
:10B300002804C602D2022804D702DC022804F6026E
:10B310006D026D026D026D026D026D026D026D02B5
:10B320006D0228042804280428042804280428047A
:10B33000FB0228043C03F303FB02FB02FB0228048C
:10B34000280428042804EE03280428049A0028046A
:10B3500028042804500328047903280428049003AF
:10B36000280428042804280428042804280428047D
:10B37000FB0228043C03C500FB02FB02FB02D103D5
:10B38000C50070002804B5032804C2039C00DE0336
:10B3900070002804500372002C02280428047C0248
:10B3A000280472004946039801F0A8FCA0B1D9F81E
:10B3B0006430D80704D4B9F80C30990540F1B7834C
:10B3C0004FF0FF330593059857B0BDE8F08F48F074
:10B3D00020089AF8006081E7B9F80C3003F01A02EF
:10B3E0000A2A7FF437AFB9F90E20002AFFF632AFF0
:10B3F000D9F86420D20705D49B0503D4D9F85800A6
:10B4000002F0E4FF23463A464946039801F026FC41
:10B410000590059857B0BDE8F08F039802F002FE42
:10B42000F4E648F0100818F0200F00F06C83089C38
:10B43000073424F00703D3E9004503F1080208921A
:10B4400028F4806300228CE12AAA0799039803F06C
:10B450004DFF002841F076830DF1B40B2CE7D9F8AD
:10B46000580002F0B1FFB9F90C2093B2D8E600BF42
:10B47000000000000000000043469F0640F12F83BB
:10B48000089C073424F00704D4E9000104F1080201
:10B49000089204460D46002871F1000205DA2D22BB
:10B4A000644265EB45058DF88B2056AAB9F1FF3F44
:10B4B000049200F0B284012254EA050123F08008CE
:10B4C00040F05981B9F1000F40F01986002A40F090
:10B4D000088513F0010356AF099302D0302307F813
:10B4E000013D00230A930F9314931193099B9DF838
:10B4F0008B204B45B8BF4B46049312B1049B0133DC
:10B50000049318F002030B9302D0049B02330493BC
:10B5100018F084032C9C0E933FD1069B04995D1A6E
:10B52000002D3ADD102D2B9A29DD59462046209614
:10B530001023039C079EBB4604E0103D102D01F133
:10B54000080118DD0132BA4F1030072ACDE92B204F
:10B55000C1E90073F1DD2AAA314620460C9303F0BD
:10B56000C5FE002840F03D84103D102DDDE92B2064
:10B570002DA90C9BE6DC209E5F4604468B460132DB
:10B58000AB4B2C44072ACDE92B24CBE9003500F343
:10B59000FF849DF88B200BF1080B72B12B9A0132BE
:10B5A00001340DF18B000121072ACDE92B24CBE9D1
:10B5B000000100F318840BF1080B0B9B6BB12B9B64
:10B5C0000133023423A90222072BCDE92B34CBE926
:10B5D000001200F315840BF1080B0E9B802B00F07A
:10B5E0003183099BA9EB0305002D37DD102D2B9A24
:10B5F000904B28DD59462046BB464FF01009374690
:10B600001C46079E04E0103D102D01F1080115DDD8
:10B6100001321030072ACDE92B20C1E90049F2DDC3
:10B620002AAA3146039803F061FE002840F0D9832E
:10B63000103D102DDDE92B202DA9E9DC3E462346E7
:10B640005F4604468B4601322C44072ACDE92B2461
:10B65000CBE9003500F3EF830BF1080B18F4807F82
:10B6600040F080822B9B099ACBF800700133144480
:10B67000072B2C94CBF804202B9300F392830BF12F
:10B68000080B18F0040F3BD0069B049A9D1A002D5E
:10B6900036DD102D2B9B21DD1026039FDDF81C804D
:10B6A00004E0103D102D0BF1080B17DD0133604A4B
:10B6B0001034072BCDE92B34CBE90026F1DD2AAA83
:10B6C0004146384603F012FE002840F06C85103DDC
:10B6D000102DDDE92B340DF1B40BE7DC0133544AB6
:10B6E0002C44072BCDE92B34CBE9002508DD2AAA11
:10B6F0000799039803F0FAFD002840F0E9822C9C9A
:10B700000499DDE905328A42ACBF9B185B180593AA
:10B71000002C40F0D58200232B930A9B1BB10A9981
:10B72000039802F021FD0DF1B40B57463B78002B36
:10B730007FF4A7AD2C9BDDF81C90002B41F0E78037
:10B7400000232B93CBE243469A0640F14E81089C9E
:10B75000073424F0070202F10801D2E900450891FC
:10B76000012200218DF88B10B9F1FF3F56A90491F9
:10B770007FF4A2AE9846012A00F05083022A00F01E
:10B780001B8356A900E03946E20842EA4572E80800
:10B7900004F0070305461446303354EA050201F865
:10B7A000013C01F1FF37EED118F0010F00F01483D6
:10B7B000302B00F01183049A02393023521A07F813
:10B7C000013C09920F468CE6A6F1300300221AF8DC
:10B7D000016B02EB820203EB4202A6F13003092B5C
:10B7E000F5D906927CE5144B179318F0200F00F062
:10B7F0001481089C073424F00703D3E9004503F1C2
:10B800000802089218F0010F09D054EA050306D087
:10B8100030238DF88D6048F002088DF88C3028F4C4
:10B82000806302229DE748F001089AF8006055E520
:10B83000E42A0300F42A0300B02A0300039E3046E2
:10B8400002F0B0FD436818931846FFF759FC1B90AF
:10B850000446304602F0A6FD83681A93002C3FF49C
:10B86000B8AD9AF80060002B3FF438AD1B78002B80
:10B870003FF434AD48F4806830E5089B9AF80060E6
:10B880001A680692002A03F10403C0F2978608930F
:10B8900024E58DF88B509AF800601FE59AF8006057
:10B8A00048F004081AE59AF800602A2E0AF101020D
:10B8B00001F0B081A6F13003092B92464FF0000948
:10B8C0003FF60EAD1AF8016B09EB890903EB490944
:10B8D000A6F13003092BF5D902E548F080089AF863
:10B8E0000060FBE4089C073424F0070494ED007B1F
:10B8F00052EC171B22F000431D938DED1C7A083487
:10B90000DDE91C014FF0FF32BA4B08948DED127B3C
:10B9100005F03EFB002840F06F844FF0FF32B54B3E
:10B92000DDE91C0105F016FB002840F065840022CB
:10B930000023DDE9120105F003FB002840F05B85E0
:10B940009DF88B20AC4FAD4B0020032104910A9051
:10B9500028F08008472ED8BF1F46099181460F90D6
:10B9600014901190C9E50898002301688DF88B3078
:10B970001A468DF8F4100123011D04930A92914692
:10B980000F9214921192CDE908133DAFB9E5089BCF
:10B990001F6800258DF88B501C1D002F00F0398684
:10B9A000B9F1FF3F00F011874A462946384603F0B7
:10B9B0003FF80A90002800F0E7850A9BDB1B0993FB
:10B9C000A94623EAE37308940493CDF82890CDF8B0
:10B9D0003C90CDF85090CDF844909DF88B208CE5AC
:10B9E00048F010039A063FF5B2AE089ADF0602F15E
:10B9F000040100F17E835D06089A00F1E4849C0551
:10BA000040F177831478089100250122A9E67C4B48
:10BA1000179318F0200F7FF4ECAE089A18F0100F6F
:10BA200002F1040340F0548318F0400F089A40F0EC
:10BA3000D08418F4007F00F04B831478089300251D
:10BA4000E0E69DF88B309AF80060002B7FF446AC5E
:10BA500020238DF88B3041E49AF800606C2E03BFF0
:10BA60009AF8016048F020080AF1010A48F010082D
:10BA700034E4089A18F0200F52F8043B089200F0C2
:10BA8000A183059A1046D117C3E9000157464DE638
:10BA90009AF80060682E03BF9AF8016048F40078B5
:10BAA0000AF1010A48F0400818E40899554B0C685F
:10BAB000179347F630020431ADF88C2048F00203AA
:10BAC00008910025022278264BE648F008089AF8EB
:10BAD000006003E448F010039F063FF5D1AC0899DD
